:100000000C942A000C94DA000C94EE010C943C0041
:100010000C943E000C943C000C943C000C943C006E
:100020000C943C000C943C000C943C000C943C0060
:100030000C943C000C943C000C943C000C943C0050
:100040000C943C000C943C000C9401030C943C0078
:100050000C943C0011241FBECFE5D4E0DEBFCDBF21
:1000600020E0A0E6B0E001C01D92AB36B207E1F798
:100070000E9426040C94E5050C9400001F920F9238
:1000800000905F000F921124EF92FF920F931F9345
:100090002F933F934F935F936F937F938F939F9390
:1000A000AF93BF93EF93FF93CF93DF93CDB7DEB7BB
:1000B0008091600090916100A0916200B091630016
:1000C0000896A11DB11D8093600090936100A093DC
:1000D0006200B09363008091600090916100A091F4
:1000E0006200B0916300803801E5900701E0A0074D
:1000F000B10540F010926000109261001092620011
:100100001092630020916000309161004091620084
:10011000509163008091640090916500A091660009
:10012000B091670079018A01E81AF90A0A0B1B0BE2
:10013000D801C70181319105A105B10568F480910D
:10014000600090916100A0916200B0916300BC01D9
:10015000CD010E94590316C082E390E022E330E013
:10016000F90120812F77FC012083F89485E590E048
:1001700025E530E0F90120812064FC01208378949A
:1001800010926A00DF91CF91FF91EF91BF91AF91F3
:100190009F918F917F916F915F914F913F912F919F
:1001A0001F910F91FF90EF900F9000925F000F90C2
:1001B0001F9018951F920F9200905F000F921124CC
:1001C0000F931F932F933F934F935F936F937F935F
:1001D0008F939F93AF93BF93EF93FF93CF93DF934F
:1001E000CDB7DEB72E97DEBFCDBF80916A008130DC
:1001F00059F58091600090916100A0916200B091EA
:100200006300805F914FAF4FBF4F8093600090932A
:100210006100A0936200B0936300809160009091B0
:100220006100A0916200B0916300803821E59207DF
:1002300021E0A207B10540F0109260001092610029
:1002400010926200109263008091600090916100B2
:10025000A0916200B0916300809364009093650068
:10026000A0936600B093670082E390E022E330E061
:10027000F90120812367FC01208382E390E022E3DF
:1002800030E0F90120812068FC012083809160002A
:1002900090916100A0916200B0916300BC01CD011A
:1002A0000E94590380916A00882309F078C0F8946D
:1002B00080E090E0AAEFB4E489839A83AB83BC83A7
:1002C0002FE632E143E051E469817A818B819C81A0
:1002D0000E943805DC01CB018D839E83AF83B887F4
:1002E00020E030E040E85FE36D817E818F8198857A
:1002F0000E94B70488232CF481E090E09A878987D4
:1003000040C020E03FEF4FE757E46D817E818F8151
:1003100098850E943405181654F520E030E040E23C
:1003200051E469817A818B819C810E943805DC01CE
:10033000CB01BC01CD010E94BB04DC01CB019A873B
:10034000898710C01C861B868B859C858C01C80103
:100350000197F1F78C011C870B8789859A85019796
:100360009A87898789859A85009761F717C06D817B
:100370007E818F8198850E94BB04DC01CB019A8726
:10038000898789859A859E878D878D859E858C0135
:10039000F8013197F1F78F011E870D87789481E07E
:1003A00080936A002E960FB6F894DEBF0FBECDBFC5
:1003B000DF91CF91FF91EF91BF91AF919F918F917D
:1003C0007F916F915F914F913F912F911F910F916D
:1003D0000F9000925F000F901F9018951F920F9240
:1003E00000905F000F9211240F931F932F933F9360
:1003F0004F935F936F937F938F939F93AF93BF932D
:10040000EF93FF93CF93DF93CDB7DEB72E97DEBF89
:10041000CDBF80916A00813051F58091600090914C
:100420006100A0916200B0916300CC96A11DB11D46
:100430008093600090936100A0936200B09363008A
:100440008091600090916100A0916200B091630082
:10045000803821E5920721E0A207B10540F0109213
:10046000600010926100109262001092630080910F
:10047000600090916100A0916200B0916300809350
:10048000640090936500A0936600B093670082E3D8
:1004900090E022E330E0F90120812367FC01208312
:1004A00082E390E022E330E0F90120812068FC0142
:1004B00020838091600090916100A0916200B091D2
:1004C0006300BC01CD010E94590380916A0088231A
:1004D00009F078C0F89480E090E0AAEFB4E4898352
:1004E0009A83AB83BC832FE632E143E051E4698118
:1004F0007A818B819C810E943805DC01CB018D8340
:100500009E83AF83B88720E030E040E85FE36D81F1
:100510007E818F8198850E94B70488232CF481E026
:1005200090E09A87898740C020E03FEF4FE757E48B
:100530006D817E818F8198850E943405181654F54F
:1005400020E030E040E251E469817A818B819C8136
:100550000E943805DC01CB01BC01CD010E94BB0427
:10056000DC01CB019A87898710C01C861B868B858E
:100570009C858C01C8010197F1F78C011C870B87C2
:1005800089859A8501979A87898789859A850097B1
:1005900061F717C06D817E818F8198850E94BB04B1
:1005A000DC01CB019A87898789859A859E878D870B
:1005B0008D859E858C01F8013197F1F78F011E879B
:1005C0000D87789481E080936A002E960FB6F89498
:1005D000DEBF0FBECDBFDF91CF91FF91EF91BF91F5
:1005E000AF919F918F917F916F915F914F913F91CB
:1005F0002F911F910F910F9000925F000F901F900D
:1006000018951F920F9200905F000F9211242F9364
:100610003F934F935F936F937F938F939F93AF938A
:10062000BF93EF93FF93CF93DF93CDB7DEB7809166
:10063000600090916100A0916200B091630080938E
:10064000640090936500A0936600B093670082E316
:1006500090E022E330E0F90120812367FC01208350
:1006600082E390E022E330E0F90120812068FC0180
:1006700020838091600090916100A0916200B09110
:100680006300BC01CD010E945903DF91CF91FF911E
:10069000EF91BF91AF919F918F917F916F915F91FA
:1006A0004F913F912F910F9000925F000F901F90FC
:1006B0001895CF93DF9300D000D01F92CDB7DEB74F
:1006C0006A837B838C839D838A819B81AC81BD817E
:1006D0002CE330E040E050E0BC01CD010E94C305B6
:1006E000DA01C9012CE330E040E050E0BC01CD016B
:1006F0000E94C305DC01CB01809368008A819B8145
:10070000AC81BD8120E13EE040E050E0BC01CD0184
:100710000E94C305DA01C90120E13EE040E050E05B
:10072000BC01CD010E94C305DC01CB0180936900AF
:1007300019828BE390E02981FC01208325E330E0DE
:10074000909168008DEC989F812D11248695869557
:100750008695880F482F440F440F840FF92FF81BFC
:100760008F2F805DF901808389818F5F89838BE37F
:1007700090E02981FC01208325E330E0909168001E
:100780008DEC989F812D1124982F9695969596958E
:100790008DEC989F812D1124869586958695880FDE
:1007A000482F440F440F840FF92FF81B8F2F805DC3
:1007B000F901808389818F5F89838BE390E02981B0
:1007C000FC01208325E330E0909169008DEC989F37
:1007D000812D1124869586958695880F482F440F84
:1007E000440F840FF92FF81B8F2F805DF901808350
:1007F00089818F5F89838BE390E02981FC012083CD
:1008000025E330E0909169008DEC989F812D1124B3
:10081000982F9695969596958DEC989F812D1124FD
:10082000869586958695880F482F440F440F840F30
:10083000F92FF81B8F2F805DF90180830F900F90A7
:100840000F900F900F90DF91CF910895CF93DF938A
:10085000CDB7DEB781E390E02FEFFC01208384E386
:1008600090E02FEFFC0120838AE390E02FEFFC0162
:10087000208387E390E02FEFFC01208385E390E065
:10088000FC01808185E390E0FC0110828BE390E025
:10089000FC0180818BE390E0FC01108288E390E012
:1008A000FC01808188E390E0FC01108282E390E00B
:1008B00022E330E0F90120812367FC01208382E3F9
:1008C00090E022E330E0F90120812068FC012083E0
:1008D00085E490E025E430E0F90120812760FC0107
:1008E0002083000082E490E0FC018081882F90E06A
:1008F000857099270097B1F788E590E020E4FC0126
:10090000208389E590E020E4FC01208385E590E0E8
:1009100025E530E0F90120812F60FC0120838BE583
:1009200090E02BE530E0F9012081206EFC0120836E
:1009300084E590E024E530E0F90120812064FC01A9
:10094000208385E590E025E530E0F90120812F74D2
:100950002062FC012083F89485E590E025E530E0F5
:10096000F90120812064FC0120837894FFCF2FD0EF
:1009700008F481E0089557D088F09F5790F0B92F80
:100980009927B751A0F0D1F0660F771F881F991FE4
:100990001AF0BA95C9F712C0B13081F05ED0B1E05B
:1009A00008955BC0672F782F8827B85F39F0B93F6B
:1009B000CCF3869577956795B395D9F73EF49095E6
:1009C0008095709561957F4F8F4F9F4F0895990F38
:1009D0000008550FAA0BE0E8FEEF16161706E80709
:1009E000F907C0F012161306E407F50798F0621B2A
:1009F000730B840B950B39F40A2661F0232B242BFF
:100A0000252B21F408950A2609F4A140A6958FEF1D
:100A1000811D811D089557FD9058440F551F59F0B1
:100A20005F3F71F04795880F97FB991F61F09F3FDB
:100A300079F087950895121613061406551FF2CF04
:100A40004695F1DF08C0161617061806991FF1CF54
:100A500086957105610508940895E894BB2766277B
:100A60007727CB0197F90895B2DF08F48FEF089547
:100A70000BD078C069D028F06ED018F0952309F01B
:100A80005AC05FC01124EACFC6DFA0F3959FD1F30F
:100A9000950F50E0551F629FF001729FBB27F00D2C
:100AA000B11D639FAA27F00DB11DAA1F649F662781
:100AB000B00DA11D661F829F2227B00DA11D621FD0
:100AC000739FB00DA11D621F839FA00D611D221F8A
:100AD000749F3327A00D611D231F849F600D211D6E
:100AE000822F762F6A2F11249F5750408AF0E1F011
:100AF00088234AF0EE0FFF1FBB1F661F771F881F5A
:100B000091505040A9F79E3F510570F014C0A6CFF8
:100B10005F3FECF3983EDCF3869577956795B79544
:100B2000F795E7959F5FC1F7FE2B880F911D96956E
:100B3000879597F9089597F99F6780E870E060E0DE
:100B400008959FEF80EC089500240A941616170666
:100B500018060906089500240A94121613061406AE
:100B600005060895092E0394000C11F4882352F011
:100B7000BB0F40F4BF2B11F460FF04C06F5F7F4FC9
:100B80008F4F9F4F0895A1E21A2EAA1BBB1BFD0198
:100B90000DC0AA1FBB1FEE1FFF1FA217B307E4075C
:100BA000F50720F0A21BB30BE40BF50B661F771FB4
:100BB000881F991F1A9469F7609570958095909594
:0E0BC0009B01AC01BD01CF010895F894FFCF59
:00000001FF
